{
  "address": "0x64EA27E2985F03B0Cac385EeDC678bfEdECDC6D5",
  "abi": [
    {
      "anonymous": false,
      "inputs": [
        {
          "indexed": true,
          "internalType": "address",
          "name": "receiver",
          "type": "address"
        },
        {
          "indexed": false,
          "internalType": "uint256",
          "name": "index",
          "type": "uint256"
        }
      ],
      "name": "Cancelled",
      "type": "event"
    },
    {
      "anonymous": false,
      "inputs": [
        {
          "indexed": true,
          "internalType": "address",
          "name": "receiver",
          "type": "address"
        },
        {
          "indexed": false,
          "internalType": "uint256",
          "name": "index",
          "type": "uint256"
        }
      ],
      "name": "Completed",
      "type": "event"
    },
    {
      "anonymous": false,
      "inputs": [
        {
          "indexed": true,
          "internalType": "address",
          "name": "receiver",
          "type": "address"
        },
        {
          "indexed": false,
          "internalType": "address",
          "name": "token1Address",
          "type": "address"
        },
        {
          "indexed": false,
          "internalType": "uint256",
          "name": "token1Amount",
          "type": "uint256"
        },
        {
          "indexed": false,
          "internalType": "address",
          "name": "token2Address",
          "type": "address"
        },
        {
          "indexed": false,
          "internalType": "contract ISwapRouter02",
          "name": "router",
          "type": "address"
        },
        {
          "indexed": false,
          "internalType": "uint256",
          "name": "swapExecutionPeriod",
          "type": "uint256"
        },
        {
          "indexed": false,
          "internalType": "uint256",
          "name": "swapStartTime",
          "type": "uint256"
        },
        {
          "indexed": false,
          "internalType": "uint256",
          "name": "numberOfSwaps",
          "type": "uint256"
        }
      ],
      "name": "Deposited",
      "type": "event"
    },
    {
      "anonymous": false,
      "inputs": [
        {
          "indexed": true,
          "internalType": "address",
          "name": "receiver",
          "type": "address"
        },
        {
          "indexed": false,
          "internalType": "address",
          "name": "token1Address",
          "type": "address"
        },
        {
          "indexed": false,
          "internalType": "uint256",
          "name": "token1Amount",
          "type": "uint256"
        },
        {
          "indexed": false,
          "internalType": "address",
          "name": "token2Address",
          "type": "address"
        },
        {
          "indexed": false,
          "internalType": "uint256",
          "name": "token2Amount",
          "type": "uint256"
        }
      ],
      "name": "Swapped",
      "type": "event"
    },
    {
      "inputs": [
        {
          "internalType": "address",
          "name": "",
          "type": "address"
        }
      ],
      "name": "activeRequestsLength",
      "outputs": [
        {
          "internalType": "uint256",
          "name": "",
          "type": "uint256"
        }
      ],
      "stateMutability": "view",
      "type": "function"
    },
    {
      "inputs": [
        {
          "internalType": "address",
          "name": "receiver",
          "type": "address"
        },
        {
          "internalType": "uint256",
          "name": "index",
          "type": "uint256"
        }
      ],
      "name": "cancelDcaRequest",
      "outputs": [],
      "stateMutability": "nonpayable",
      "type": "function"
    },
    {
      "inputs": [
        {
          "internalType": "address",
          "name": "",
          "type": "address"
        }
      ],
      "name": "completedRequestsLength",
      "outputs": [
        {
          "internalType": "uint256",
          "name": "",
          "type": "uint256"
        }
      ],
      "stateMutability": "view",
      "type": "function"
    },
    {
      "inputs": [
        {
          "internalType": "address",
          "name": "",
          "type": "address"
        },
        {
          "internalType": "uint256",
          "name": "",
          "type": "uint256"
        }
      ],
      "name": "dcaRequests",
      "outputs": [
        {
          "internalType": "address",
          "name": "receiver",
          "type": "address"
        },
        {
          "internalType": "contract IERC20",
          "name": "token1",
          "type": "address"
        },
        {
          "internalType": "contract IERC20",
          "name": "token2",
          "type": "address"
        },
        {
          "internalType": "uint256",
          "name": "token1InitialAmount",
          "type": "uint256"
        },
        {
          "internalType": "uint256",
          "name": "token1CurrentAmount",
          "type": "uint256"
        },
        {
          "internalType": "uint256",
          "name": "token2CurrentAmount",
          "type": "uint256"
        },
        {
          "internalType": "contract ISwapRouter02",
          "name": "router",
          "type": "address"
        },
        {
          "internalType": "uint256",
          "name": "swapExecutionPeriod",
          "type": "uint256"
        },
        {
          "internalType": "uint256",
          "name": "startTimestamp",
          "type": "uint256"
        },
        {
          "internalType": "uint256",
          "name": "numberOfSwapsToExecute",
          "type": "uint256"
        },
        {
          "internalType": "uint256",
          "name": "numberOfSwapsExecuted",
          "type": "uint256"
        },
        {
          "internalType": "uint256",
          "name": "lastExecutionTimestamp",
          "type": "uint256"
        }
      ],
      "stateMutability": "view",
      "type": "function"
    },
    {
      "inputs": [
        {
          "internalType": "address",
          "name": "",
          "type": "address"
        },
        {
          "internalType": "uint256",
          "name": "",
          "type": "uint256"
        }
      ],
      "name": "dcaRequestsCompleted",
      "outputs": [
        {
          "internalType": "address",
          "name": "receiver",
          "type": "address"
        },
        {
          "internalType": "contract IERC20",
          "name": "token1",
          "type": "address"
        },
        {
          "internalType": "contract IERC20",
          "name": "token2",
          "type": "address"
        },
        {
          "internalType": "uint256",
          "name": "token1InitialAmount",
          "type": "uint256"
        },
        {
          "internalType": "uint256",
          "name": "token1CurrentAmount",
          "type": "uint256"
        },
        {
          "internalType": "uint256",
          "name": "token2CurrentAmount",
          "type": "uint256"
        },
        {
          "internalType": "contract ISwapRouter02",
          "name": "router",
          "type": "address"
        },
        {
          "internalType": "uint256",
          "name": "swapExecutionPeriod",
          "type": "uint256"
        },
        {
          "internalType": "uint256",
          "name": "startTimestamp",
          "type": "uint256"
        },
        {
          "internalType": "uint256",
          "name": "numberOfSwapsToExecute",
          "type": "uint256"
        },
        {
          "internalType": "uint256",
          "name": "numberOfSwapsExecuted",
          "type": "uint256"
        },
        {
          "internalType": "uint256",
          "name": "lastExecutionTimestamp",
          "type": "uint256"
        }
      ],
      "stateMutability": "view",
      "type": "function"
    },
    {
      "inputs": [
        {
          "internalType": "address",
          "name": "receiver",
          "type": "address"
        },
        {
          "internalType": "uint256",
          "name": "index",
          "type": "uint256"
        }
      ],
      "name": "executeSwap",
      "outputs": [],
      "stateMutability": "nonpayable",
      "type": "function"
    },
    {
      "inputs": [
        {
          "internalType": "uint256",
          "name": "",
          "type": "uint256"
        }
      ],
      "name": "receivers",
      "outputs": [
        {
          "internalType": "address",
          "name": "",
          "type": "address"
        }
      ],
      "stateMutability": "view",
      "type": "function"
    },
    {
      "inputs": [
        {
          "internalType": "contract IERC20",
          "name": "token1",
          "type": "address"
        },
        {
          "internalType": "contract IERC20",
          "name": "token2",
          "type": "address"
        },
        {
          "internalType": "uint256",
          "name": "token1Amount",
          "type": "uint256"
        },
        {
          "internalType": "contract ISwapRouter02",
          "name": "router",
          "type": "address"
        },
        {
          "internalType": "uint256",
          "name": "numberOfSwaps",
          "type": "uint256"
        },
        {
          "internalType": "uint256",
          "name": "swapExecutionPeriod",
          "type": "uint256"
        },
        {
          "internalType": "uint256",
          "name": "startTimestamp",
          "type": "uint256"
        }
      ],
      "name": "submitDcaRequest",
      "outputs": [],
      "stateMutability": "nonpayable",
      "type": "function"
    }
  ],
  "transactionHash": "0x3d23ed2a00ab235d1fa26e4f9d5e4937f38b3271f662351b744f4d7d22b2183f",
  "args": [],
  "numDeployments": 4,
  "solcInputHash": "10869de340d0d6927074a38051027b39",
  "bytecode": "0x608060405234801561001057600080fd5b506113d4806100206000396000f3fe608060405234801561001057600080fd5b50600436106100885760003560e01c8063a5f28cb51161005b578063a5f28cb514610108578063b160a94f14610192578063baac0a1a146101a5578063bfd772fc146101b857600080fd5b80630ec6eb731461008d578063519e1c1b146100c057806395c8d546146100d55780639df1d86e146100e8575b600080fd5b6100ad61009b3660046111cc565b60016020526000908152604090205481565b6040519081526020015b60405180910390f35b6100d36100ce3660046111f0565b6101e3565b005b6100d36100e336600461125e565b610610565b6100ad6100f63660046111cc565b60036020526000908152604090205481565b61011b61011636600461125e565b6106bf565b604080516001600160a01b039d8e1681529b8d1660208d0152998c16998b019990995260608a0197909752608089019590955260a0880193909352961660c086015260e0850195909552610100840194909452610120830193909352610140820192909252610160810191909152610180016100b7565b61011b6101a036600461125e565b61074c565b6100d36101b336600461125e565b610768565b6101cb6101c636600461128a565b610c6b565b6040516001600160a01b0390911681526020016100b7565b6040516323b872dd60e01b8152336004820152306024820152604481018690526001600160a01b038816906323b872dd906064016020604051808303816000875af1158015610236573d6000803e3d6000fd5b505050506040513d601f19601f8201168201806040525081019061025a91906112a3565b6102ab5760405162461bcd60e51b815260206004820152601760248201527f66756e64696e67207472616e73666572206661696c656400000000000000000060448201526064015b60405180910390fd5b6000339080600181540180825580915050600190039060005260206000200160009091909190916101000a8154816001600160a01b0302191690836001600160a01b0316021790555060026000336001600160a01b03166001600160a01b03168152602001908152602001600020604051806101800160405280336001600160a01b03168152602001896001600160a01b03168152602001886001600160a01b0316815260200187815260200187815260200160008152602001866001600160a01b0316815260200184815260200183815260200185815260200160008152602001600081525090806001815401808255809150506001900390600052602060002090600c020160009091909190915060008201518160000160006101000a8154816001600160a01b0302191690836001600160a01b0316021790555060208201518160010160006101000a8154816001600160a01b0302191690836001600160a01b0316021790555060408201518160020160006101000a8154816001600160a01b0302191690836001600160a01b03160217905550606082015181600301556080820151816004015560a0820151816005015560c08201518160060160006101000a8154816001600160a01b0302191690836001600160a01b0316021790555060e082015181600701556101008201518160080155610120820151816009015561014082015181600a015561016082015181600b0155505060026000336001600160a01b03166001600160a01b031681526020019081526020016000208054905060016000336001600160a01b03166001600160a01b0316815260200190815260200160002081905550866001600160a01b031663095ea7b385876040518363ffffffff1660e01b81526004016105599291906001600160a01b03929092168252602082015260400190565b6020604051808303816000875af1158015610578573d6000803e3d6000fd5b505050506040513d601f19601f8201168201806040525081019061059c91906112a3565b50604080516001600160a01b0389811682526020820188905288811682840152861660608201526080810184905260a0810183905260c08101859052905133917f42b2f4c840cfc7a2cdd5ee84638c3ad6dd6109741f9b26fbcbbb4e5e3bd4b4c0919081900360e00190a250505050505050565b6001600160a01b03821633146106595760405162461bcd60e51b815260206004820152600e60248201526d1b9bdd08185d5d1a1bdc9a5e995960921b60448201526064016102a2565b6106638282610c95565b6001600160a01b0382166000818152600460205260409020547f36ea5cd5608625e789af0282eecdb4eae1cb7c1cf6d0ec3f9a84f35be850260b906106aa906001906112db565b60405190815260200160405180910390a25050565b600460205281600052604060002081815481106106db57600080fd5b60009182526020909120600c9091020180546001820154600283015460038401546004850154600586015460068701546007880154600889015460098a0154600a8b0154600b909b01546001600160a01b039a8b169d50988a169b509689169995989497939692909416949093928c565b600260205281600052604060002081815481106106db57600080fd5b6001600160a01b0382166000908152600260205260408120805483908110610792576107926112f4565b60009182526020918290206040805161018081018252600c90930290910180546001600160a01b039081168452600182015481169484019490945260028101548416918301919091526003810154606083015260048101546080830152600581015460a0830152600681015490921660c0820152600782015460e0820152600882015461010082018190526009830154610120830152600a830154610140830152600b9092015461016082015291504210156108895760405162461bcd60e51b81526020600482015260166024820152751cdd185c9d0819185d19481b9bdd081c995858da195960521b60448201526064016102a2565b6000816101200151116108ce5760405162461bcd60e51b815260206004820152600d60248201526c6e6f206d6f726520737761707360981b60448201526064016102a2565b8060e001518161016001516108e3919061130a565b42101561093c5760405162461bcd60e51b815260206004820152602160248201527f7377617020657865637574696f6e20706572696f64206e6f74207265616368656044820152601960fa1b60648201526084016102a2565b60008161012001518260800151610953919061131d565b6040805160e0810182526020808601516001600160a01b039081168352868401518116918301918252610bb8838501908152306060850190815260808501878152600060a0870181815260c0808901838152908d015199516304e45aaf60e01b8152895188166004820152975187166024890152945162ffffff16604488015292518516606487015290516084860152905160a48501529051821660c4840152949550919392909116906304e45aaf9060e4016020604051808303816000875af1158015610a25573d6000803e3d6000fd5b505050506040513d601f19601f82011682018060405250810190610a49919061133f565b61012085018051919250610a5c82611358565b9052506101408401805190610a708261136f565b815250508284608001818151610a8691906112db565b90525060a084018051829190610a9d90839061130a565b905250426101608501526001600160a01b0386166000908152600260205260409020805485919087908110610ad457610ad46112f4565b60009182526020918290208351600c929092020180546001600160a01b03199081166001600160a01b0393841617825584840151600183018054831691851691909117905560408086015160028401805484169186169190911790556060808701516003850155608080880151600486015560a0880151600586015560c08801516006860180549095169087161790935560e0870151600785015561010087015160088501556101208701516009850155610140870151600a85015561016090960151600b90930192909255888401518983015183519185168252948101899052938316918401919091529282018490528816917f692315744755ee6d80decaeb993d4b1bb95ff5db042cc47b32d5a7d858b01902910160405180910390a2836101200151600003610c6357610c0a8686610c95565b6001600160a01b0386166000818152600460205260409020547fde2dead40a8c097b51964aec2a068ffa7dc41c6a98ff2c2b4a6e72957c32ac7690610c51906001906112db565b60405190815260200160405180910390a25b505050505050565b60008181548110610c7b57600080fd5b6000918252602090912001546001600160a01b0316905081565b6001600160a01b0382166000908152600260205260408120805483908110610cbf57610cbf6112f4565b60009182526020918290206040805161018081018252600c9390930290910180546001600160a01b0390811684526001820154811694840185905260028201548116848401526003820154606085015260048083015460808601819052600584015460a08701526006840154831660c0870152600784015460e087015260088401546101008701526009840154610120870152600a840154610140870152600b90930154610160860152925163a9059cbb60e01b815290881692810192909252602482015290925063a9059cbb906044016020604051808303816000875af1158015610daf573d6000803e3d6000fd5b505050506040513d601f19601f82011682018060405250810190610dd391906112a3565b610e115760405162461bcd60e51b815260206004820152600f60248201526e1d1c985b9cd9995c8819985a5b1959608a1b60448201526064016102a2565b60408082015160a0830151915163a9059cbb60e01b81526001600160a01b038681166004830152602482019390935291169063a9059cbb906044016020604051808303816000875af1158015610e6b573d6000803e3d6000fd5b505050506040513d601f19601f82011682018060405250810190610e8f91906112a3565b610ecd5760405162461bcd60e51b815260206004820152600f60248201526e1d1c985b9cd9995c8819985a5b1959608a1b60448201526064016102a2565b6001600160a01b0383811660008181526004602081815260408084208054600180820183559186528386208951600c9092020180546001600160a01b0319908116928a169290921781558985015181840180548416918b1691909117905589840151600280830180548516928c169290921790915560608b0151600383015560808b01519682019690965560a08a0151600582015560c08a0151600682018054909316991698909817905560e0880151600788015561010088015160088801556101208801516009880155610140880151600a880155610160880151600b90970196909655938352522080549091610fc4916112db565b81548110610fd457610fd46112f4565b90600052602060002090600c020160026000856001600160a01b03166001600160a01b031681526020019081526020016000208381548110611018576110186112f4565b600091825260208083208454600c9093020180546001600160a01b03199081166001600160a01b039485161782556001808701549083018054831691861691909117905560028087015481840180548416918716919091179055600380880154908401556004808801549084015560058088015490840155600680880154908401805490931690861617909155600780870154908301556008808701549083015560098087015490830155600a8087015490830155600b958601549590910194909455908616825291909152604090208054806110f7576110f7611388565b60008281526020808220600c6000199094019384020180546001600160a01b03199081168255600182810180548316905560028084018054841690556003808501879055600480860188905560058601889055600686018054909516909455600785018790556008850187905560098501879055600a8501879055600b909401869055959096556001600160a01b039890981683529281526040808320549482528083209490945595865282812054919095529320929092555050565b6001600160a01b03811681146111c957600080fd5b50565b6000602082840312156111de57600080fd5b81356111e9816111b4565b9392505050565b600080600080600080600060e0888a03121561120b57600080fd5b8735611216816111b4565b96506020880135611226816111b4565b955060408801359450606088013561123d816111b4565b9699959850939660808101359560a0820135955060c0909101359350915050565b6000806040838503121561127157600080fd5b823561127c816111b4565b946020939093013593505050565b60006020828403121561129c57600080fd5b5035919050565b6000602082840312156112b557600080fd5b815180151581146111e957600080fd5b634e487b7160e01b600052601160045260246000fd5b818103818111156112ee576112ee6112c5565b92915050565b634e487b7160e01b600052603260045260246000fd5b808201808211156112ee576112ee6112c5565b60008261133a57634e487b7160e01b600052601260045260246000fd5b500490565b60006020828403121561135157600080fd5b5051919050565b600081611367576113676112c5565b506000190190565b600060018201611381576113816112c5565b5060010190565b634e487b7160e01b600052603160045260246000fdfea2646970667358221220cdc36ade2e08d48fdd298860b56ee5e5670332b9d19778dc329ed1e0d4dc1cf864736f6c63430008110033",
  "devdoc": {
    "kind": "dev",
    "methods": {},
    "version": 1
  },
  "userdoc": {
    "kind": "user",
    "methods": {},
    "version": 1
  },
  "storageLayout": {
    "storage": [
      {
        "astId": 491,
        "contract": "contracts/DcaExecutor.sol:DcaExecutor",
        "label": "receivers",
        "offset": 0,
        "slot": "0",
        "type": "t_array(t_address)dyn_storage"
      },
      {
        "astId": 495,
        "contract": "contracts/DcaExecutor.sol:DcaExecutor",
        "label": "activeRequestsLength",
        "offset": 0,
        "slot": "1",
        "type": "t_mapping(t_address,t_uint256)"
      },
      {
        "astId": 501,
        "contract": "contracts/DcaExecutor.sol:DcaExecutor",
        "label": "dcaRequests",
        "offset": 0,
        "slot": "2",
        "type": "t_mapping(t_address,t_array(t_struct(DcaRequest)488_storage)dyn_storage)"
      },
      {
        "astId": 505,
        "contract": "contracts/DcaExecutor.sol:DcaExecutor",
        "label": "completedRequestsLength",
        "offset": 0,
        "slot": "3",
        "type": "t_mapping(t_address,t_uint256)"
      },
      {
        "astId": 511,
        "contract": "contracts/DcaExecutor.sol:DcaExecutor",
        "label": "dcaRequestsCompleted",
        "offset": 0,
        "slot": "4",
        "type": "t_mapping(t_address,t_array(t_struct(DcaRequest)488_storage)dyn_storage)"
      }
    ],
    "types": {
      "t_address": {
        "encoding": "inplace",
        "label": "address",
        "numberOfBytes": "20"
      },
      "t_array(t_address)dyn_storage": {
        "base": "t_address",
        "encoding": "dynamic_array",
        "label": "address[]",
        "numberOfBytes": "32"
      },
      "t_array(t_struct(DcaRequest)488_storage)dyn_storage": {
        "base": "t_struct(DcaRequest)488_storage",
        "encoding": "dynamic_array",
        "label": "struct DcaExecutor.DcaRequest[]",
        "numberOfBytes": "32"
      },
      "t_contract(IERC20)77": {
        "encoding": "inplace",
        "label": "contract IERC20",
        "numberOfBytes": "20"
      },
      "t_contract(ISwapRouter02)228": {
        "encoding": "inplace",
        "label": "contract ISwapRouter02",
        "numberOfBytes": "20"
      },
      "t_mapping(t_address,t_array(t_struct(DcaRequest)488_storage)dyn_storage)": {
        "encoding": "mapping",
        "key": "t_address",
        "label": "mapping(address => struct DcaExecutor.DcaRequest[])",
        "numberOfBytes": "32",
        "value": "t_array(t_struct(DcaRequest)488_storage)dyn_storage"
      },
      "t_mapping(t_address,t_uint256)": {
        "encoding": "mapping",
        "key": "t_address",
        "label": "mapping(address => uint256)",
        "numberOfBytes": "32",
        "value": "t_uint256"
      },
      "t_struct(DcaRequest)488_storage": {
        "encoding": "inplace",
        "label": "struct DcaExecutor.DcaRequest",
        "members": [
          {
            "astId": 462,
            "contract": "contracts/DcaExecutor.sol:DcaExecutor",
            "label": "receiver",
            "offset": 0,
            "slot": "0",
            "type": "t_address"
          },
          {
            "astId": 465,
            "contract": "contracts/DcaExecutor.sol:DcaExecutor",
            "label": "token1",
            "offset": 0,
            "slot": "1",
            "type": "t_contract(IERC20)77"
          },
          {
            "astId": 468,
            "contract": "contracts/DcaExecutor.sol:DcaExecutor",
            "label": "token2",
            "offset": 0,
            "slot": "2",
            "type": "t_contract(IERC20)77"
          },
          {
            "astId": 470,
            "contract": "contracts/DcaExecutor.sol:DcaExecutor",
            "label": "token1InitialAmount",
            "offset": 0,
            "slot": "3",
            "type": "t_uint256"
          },
          {
            "astId": 472,
            "contract": "contracts/DcaExecutor.sol:DcaExecutor",
            "label": "token1CurrentAmount",
            "offset": 0,
            "slot": "4",
            "type": "t_uint256"
          },
          {
            "astId": 474,
            "contract": "contracts/DcaExecutor.sol:DcaExecutor",
            "label": "token2CurrentAmount",
            "offset": 0,
            "slot": "5",
            "type": "t_uint256"
          },
          {
            "astId": 477,
            "contract": "contracts/DcaExecutor.sol:DcaExecutor",
            "label": "router",
            "offset": 0,
            "slot": "6",
            "type": "t_contract(ISwapRouter02)228"
          },
          {
            "astId": 479,
            "contract": "contracts/DcaExecutor.sol:DcaExecutor",
            "label": "swapExecutionPeriod",
            "offset": 0,
            "slot": "7",
            "type": "t_uint256"
          },
          {
            "astId": 481,
            "contract": "contracts/DcaExecutor.sol:DcaExecutor",
            "label": "startTimestamp",
            "offset": 0,
            "slot": "8",
            "type": "t_uint256"
          },
          {
            "astId": 483,
            "contract": "contracts/DcaExecutor.sol:DcaExecutor",
            "label": "numberOfSwapsToExecute",
            "offset": 0,
            "slot": "9",
            "type": "t_uint256"
          },
          {
            "astId": 485,
            "contract": "contracts/DcaExecutor.sol:DcaExecutor",
            "label": "numberOfSwapsExecuted",
            "offset": 0,
            "slot": "10",
            "type": "t_uint256"
          },
          {
            "astId": 487,
            "contract": "contracts/DcaExecutor.sol:DcaExecutor",
            "label": "lastExecutionTimestamp",
            "offset": 0,
            "slot": "11",
            "type": "t_uint256"
          }
        ],
        "numberOfBytes": "384"
      },
      "t_uint256": {
        "encoding": "inplace",
        "label": "uint256",
        "numberOfBytes": "32"
      }
    }
  }
}